:108000000040002059EB00008FEB000091EB0000D6
:1080100093EB000095EB000097EB00008DEB000068
:108020008DEB00008DEB00008DEB000099EB000064
:108030009BEB00008DEB00009DEB00009FEB000030
:10804000718A000091C90000A5EB0000A7EB0000B9
:10805000A9EB0000ABEB0000ADEB0000AFEB0000C4
:10806000DDBF00008DC90000B5EB0000B7EB0000DC
:10807000C1DE0000BBEB0000BDEB0000BFEB000069
:10808000C1EB0000C3EB0000C5EB0000C7EB000034
:10809000C9EB0000CBEB0000CDEB0000CFEB000004
:1080A000B5BC0000D3EB0000D5EB0000D7EB00001F
:1080B000D9EB0000DBEB0000000000000000000036
:1080C00000000000000000000000000000000000B0
:1080D00000000000000000000000000000000000A0
:1080E0000000000000000000000000000000000090
:1080F0000000000000000000000000000000000080
:1081000010B5054C237833B9044810B10448AFF3D7
:1081100000800121217010BD000A00200000000035
:10812000187F010008B5064B1BB106480649AFF39E
:1081300000800648016811B1054A02B1904708BDA8
:1081400000000000187F0100040A0020BC09002084
:1081500000000000154B002B08BF134B9D46A3F5F4
:10816000803A00218B460F461348144A121A07F032
:10817000C1F80F4B002B00D098470E4B002B00D0BE
:1081800098470020002104460D4600200C4900229B
:10819000002306F023FD06F0AFFD2046294606F039
:1081A00043FB06F071FD00BF000008000040002006
:1081B0000000000000000000000A002068290020E4
:1081C000A9EC0000204AD36A03F47050B0F5805F38
:1081D00035D0B0F5005F04D0B0F5006F04D11B4876
:1081E00000E01B4800687047D16801F4E062B2F516
:1081F000007F16D008D8B2B1B2F5807F1DD1154BE3
:10820000154AD96C154B12E0B2F5806F1AD0B2F551
:10821000A06F04D0B2F5407F0FD1114870471148CC
:108220007047114870470B48104BC16C104AB1F1B0
:10823000985F34BF104618467047002070474FF4CF
:10824000004070470B48704700800C400800002039
:1082500004000020B081E00FC0CF6A0040B5640088
:10826000809FD500003FAB01C0D8A700804F12000F
:1082700040420F00406F400108B5FFF7A3FF044BD9
:108280005968044B01F00F0220FA02F0186008BD93
:1082900000800C4038260020014B1868704700BF52
:1082A00008000020044B18600448C16A0B0501D582
:1082B000FFF7E2BF704700BF0800002000800C40BD
:1082C00070474FF4004070474FF47A7070470000D9
:1082D000014B1868704700BF04000020044B186071
:1082E0000448C16A8A0401D5FFF7C6BF704700BFC2
:1082F0000400002000800C400A494B6803F007028C
:10830000032A0CD8DFE802F00202070723F0070077
:1083100040F0010303E023F0070343F003034B6045
:10832000704700BF00000C40104A10B5104C1149B6
:108330008218A2424B680BD803F00700821E012A64
:1083400023F0070394BF43F0030343F001030BE062
:10835000094A904208D803F00700821E012A23F040
:10836000070398BF43F002034B6010BDFFDB0BFF18
:10837000FF23F40000000C400024F400034B5A6D6E
:10838000D20702D4196D0842FCD1704700800C401E
:1083900008B50D4B4000996A21FA00F101F0030283
:1083A000022A07D0032A09D0012A0BD1BDE80840D0
:1083B000FFF787BFBDE80840FFF78ABFFFF75CFF04
:1083C000400808BD002008BD00800C40042919D8D1
:1083D000DFE801F0030507090B00012206E0032294
:1083E00004E0002202E0022200E00422064B9A612F
:1083F000054BD86108205862D96A4904FCD4024A66
:10840000D06970470020704700800C40C0F3031112
:10841000013903460122032935D8DFE801F00205BE
:108420000C1F1A4B996801E01848416801F00F00D1
:1084300002FA00F07047164A4FF00100934208D04C
:1084400002F504318B421FD1104B9A6EC2F3031216
:1084500016E00E498B6E03F00F0211E00D494FF04C
:1084600001008B4208D001F5043293420CD1074B36
:10847000196FC1F3011203E0044B196F01F00302FD
:1084800000FA02F070470120704700BF00800C40E6
:108490003004080040051400C0F3031310B50C4667
:1084A000591E03296BD8DFE801F0020E2146B4FA09
:1084B00084F1334BCCB29A68C4F11F0422F00F0050
:1084C00004439C6010BDFFF717FFB4FA84F12C4BF6
:1084D000CCB25A68C4F11F0422F00F0004435C6060
:1084E000FFF7CAFEBDE81040FFF71EBF254A9042C5
:1084F00012D002F50433984241D10420FFF73EFF29
:10850000B4FA84F01E49C4B28A6EC4F11F0322F08B
:10851000F00040EA03140CE00420FFF72FFFB4FA48
:1085200084F41749E3B28A6EC3F11F0422F00F00EE
:1085300004438C6610BD144A904212D002F50433F5
:1085400098421CD14020FFF719FFB4FA84F40C487C
:10855000E2B2016FC2F11F0321F0300444EA0314B8
:108560000CE04020FFF70AFFB4FA84F10448CBB2D4
:10857000026FC3F11F0422F003010C43046710BD16
:1085800000800C403004080040051400C0F30323B1
:1085900070B50D46591E052921D8DFE801F00312F8
:1085A00006090C0F00220E4C0DE000220D4C0AE0D3
:1085B00001220D4C07E010220C4C04E000220C4C70
:1085C00001E00C4C0022C0F3043612B11046FFF754
:1085D000D5FE04F1047406EBC4008600356070BD5E
:1085E00008800C4040800C4058800C4060800C405B
:1085F00078800C4044800C4000F00F00411E03299D
:108600002CD8DFE801F00418210207207047154B31
:10861000DA6A02F47050B0F5805F0AD0B0F5005FFE
:1086200005D0B0F5006F0CBF042005207047022074
:108630007047032070470B4A906A00F0030101392C
:1086400002290DD8084B07E0064B9A6A02F00C008D
:10865000011F082904D8054B585C7047002070475B
:108660000120704700800C40016F0100F86E01008E
:1086700000F47810B0F5202F08B53CD019D8B0F52B
:10868000802F2FD009D8002856D0B0F5003F57D101
:10869000FFF798FD2B4B9A682AE0B0F5C02F25D044
:1086A000B0F5002F4CD10020FFF772FE25498A6EED
:1086B0001EE0B0F5B01F2BD00DD8B0F5901F22D022
:1086C000B0F5A01F3CD10120FFF762FE1D4B196FD2
:1086D00001F0030123E0B0F5C01F23D0B0F5D01F97
:1086E0002ED127E0BDE80840FFF7C6BD00200BE013
:1086F00002F00F0113E00020FFF74AFE114A936ECB
:10870000C3F303110BE00120BDE80840FFF740BEB2
:108710000120FFF73DFE0B4A136FC3F3011120FA4E
:1087200001F008BD0848FFF767FF072802D00828B6
:1087300006D101E0054808BDBDE80840FFF742BD8D
:10874000002008BD00800C4004001800809FD50068
:10875000054B30B11A6D002AFCD103490120486550
:1087600070475865704700BF00800C40024BD868C6
:10877000C0F30220704700BF00800C4070B5054672
:10878000052836D8DFE800F00306090E121619494D
:10879000C96A0DE01748C46A0EE0164BDC6AC4F3E0
:1087A00007440BE0134AD66A340E07E01148016B08
:1087B000CCB203E00F4B1C6BC4F307240120FFF77E
:1087C0001BFF0528064601D1FFF796FD0A4A052E34
:1087D000D36823F4FF6020F0070141EA052545EA4C
:1087E0000404D46005D1FFF747FDBDE87040FFF7F2
:1087F0009BBD70BDB081E00F00800C40024BD8687B
:10880000C0F30430704700BF00800C40044B00F000
:108810001F00DA6822F4F83141EA0032DA6070476A
:1088200000800C40002070477047000010B50428FD
:1088300021D8DFE800F00C09110306000120022313
:108840000CE01020202309E04020802306E04FF4B4
:1088500080704FF4007301E004200823064C29B116
:10886000206222B1E26A1342FCD000E02362BDE83C
:10887000104000F065BB10BD00800C4010B500F04A
:108880000F04012C03D04CD3032C4AD821E0881EBE
:10889000032846D8DFE800F0020B05080020042476
:1088A00007E00220044604E00320012401E0012047
:1088B000032401210A46FFF7B9FFFFF71DFD194BFD
:1088C0005C6200F03DFBFFF7D7FCBDE81040FFF70E
:1088D0002BBD0139052924D8DFE801F016030A234E
:1088E0002311012100200A46FFF7A0FF02200CE01F
:1088F000012001460246FFF799FF012005E00A4BDF
:1089000001221A60032000E00020064A022C916A2E
:108910000BBF21F0030121F00C01084341EA800064
:10892000906210BD00800C4008089043032808D0D6
:10893000042809D001280BD1064B186900F07F00EC
:108940007047044BDA6801E002494A69D0B27047C7
:108950000020704700800C4003280CD0042812D05F
:10896000012817D10C4B01F07F011A6922F07F001A
:10897000014319617047084BC9B2DA6822F0FF0061
:108980000143D9607047044BC9B25A6922F0FF0015
:1089900001435961704700BF00800C4001280CD092
:1089A00006D3022811D10A4B986F00F0200108E08D
:1089B000074A936F03F0020103E00548816F01F05D
:1089C0000801081C18BF012070470020704700BF35
:1089D00000800C40024BC000C2181160704700BFFD
:1089E000040F90432DE9F041DFF880800401D8F8AE
:1089F00008C0069D079F089EA4441AB9D8F80C80A9
:108A0000444400E06446DCF80CC0BCF1000F01D027
:108A10008CF8082057B1D4F808C0CCF3816CBCF1B5
:108A2000030F1CBF06FA0CFC674427603DB1A76822
:108A3000BF0F032F1CBF06FA07F7ED19656001256C
:108A400005FA00F0094D0BB1A86100E0E8610AB138
:108A5000686300E02863A36823F47F5222F03700A4
:108A6000014341EA0616A660BDE8F08100200C40F3
:108A70001A4A2DE9F0411368D7681F4000D5FEE778
:108A800017480226D0F8388007EA08050024F5B117
:108A9000EB0719D5012000FA04F01149114A8B683F
:108AA000106003EB0411CB6873B1197AD3F800C0DE
:108AB00081F001001872BCF1000F05D00031204692
:108AC00018BF01215A68E0476D080134DFE7013E15
:108AD00027EA0805DAD1BDE8F08100BF00300C407C
:108AE00000200C4008300C4030B585B08DE80C00FB
:108AF000089B0D46029302212A4600230446FFF7F5
:108B000071FF012000FA04F002498862486105B053
:108B100030BD00BF00200C40F0B585B00A9C0F4668
:108B200001940B9C164600930294334601213A4669
:108B30000546FFF757FF012303FA05F50148856253
:108B400005B0F0BD00200C40F0B585B00D461746CD
:108B50000B990C9A1E460D9B0091019202930321E2
:108B600000222B460446FFF73DFF0A98032102909E
:108B700001222046009701962B46FFF733FF012183
:108B800001FA04F4014A946205B0F0BD00200C40E3
:108B9000F0B51E4D02EB031CAF680401ACF1040CF0
:108BA00044F807C0ED68E6190C352C197460976815
:108BB0005C1E02EB041407F00605A768042D27F0DD
:108BC0000707A760A7680CBF47F0020747F0010737
:108BD000A760F4680CB10027277292689B0102F429
:108BE000E0122A4342F02A4242F4004242EAC10122
:108BF000012202FA00F0103B1943B1600349042D31
:108C00004863886208BF4861F0BD00BF00200C4087
:108C10000F4B10B59C688A6804EB0014E2600C7876
:108C2000012202FA00F20CB19A6300E0DA634A68AA
:108C300000F5886443F824204A780649431822B195
:108C4000012202FA00F0044988609B001A6010BDFE
:108C500000200C406080E11000300C4010B50C4B3F
:108C600009B1996800E0D96801EB00101179D47856
:108C7000890441EA843114789378A407527844EA4D
:108C8000037444EA826242EA03631943816010BDBF
:108C900000200C40F0B5547A0901032C18BF9689C6
:108CA00015681CBFA640AD1945504318117A50688D
:108CB000032918BF9589D77B1CBF8D40401900261A
:108CC0005860DE60907AB7420CBF05250725967B79
:108CD00097898907D27A41EA0071B60446EA0716F5
:108CE00041EA846446EA823244EA006002432A434D
:108CF0009A60F0BD034B996A21FA00F000F0010080
:108D0000704700BF00200C40F0B59DF81CC0059DC9
:108D1000069CBCF1000F0CBF4FF0030C4FF0010C90
:108D2000164F060109B1B96800E0F968711845B13C
:108D30008E68C6F38166032E1CBF04FA06F6AD19D1
:108D40000D603BB18D68AD0F032D1CBF04FA05F516
:108D50005B194B60012303FA00F0084B0AB19861DC
:108D600000E0D8618A6822F47F5020F0370343EA9C
:108D7000041444EA0C048C60F0BD00BF00200C40D9
:108D80000E4B0F4A0120C3F88000FF2100235360DF
:108D9000D1615162D1625163D163D064094802F557
:108DA000805102F58852CB608860136053609360F5
:108DB000D360136153619361D361704700E100E0B8
:108DC00000200C40FF00008010B5012104460C4833
:108DD000FFF7DCFBFFF7D4FF0A4B01220A48C3F878
:108DE00080211A60626800F580534FF00041D9601D
:108DF00082602378590141F00102426010BD00BF3A
:108E00000013040000E100E000200C401A4B1B4955
:108E100045F60E02D3F88400C3F884200A8800F0D7
:108E2000010002F4AA71196202F47051B1F5805F79
:108E300006D0B1F5005F08D0B1F5006F11D10AE09E
:108E4000D96A0906FCD5032103E0D96A8905FCD556
:108E50000421094B04E0084BD96A0907FBD502211C
:108E60005962D30702D4044B02221A6218B1024994
:108E70000020C1F88400704700800C401C0A0020CC
:108E8000094B0A4ADB6A1380094A116941F004015F
:108E9000116130BF08B1FFF7B9BF03F4806083B23E
:108EA0000BB9FFF7E9B9704700800C401C0A00209D
:108EB00000ED00E0134B1449DA6A10B50A80D3F8CC
:108EC000841045F60E04C3F88440C9074FF420749B
:108ED0001C6202D50021C3F884100C4B196941F0C3
:108EE0000401196130BF18B1BDE81040FFF78EBF13
:108EF00002F4806082B21AB9BDE81040FFF7BCB935
:108F000010BD00BF00800C401C0A002000ED00E0F6
:108F1000074B08200C214AF6E8529A601860196045
:108F2000186019601860196018601960186070473F
:108F300000600C40014B5860704700BF00600C405F
:108F4000024B0348DA6A0280704700BF00800C4081
:108F50001C0A0020044BD3F8202122F4407141EA7E
:108F60000020C3F8200170470060004024225043D5
:108F7000034B1A5822F0030211431950704700BFE7
:108F8000006000400729F0B51A4C0ED88D000F265E
:108F900006FA05F600FA05F5D4F8007127EA060688
:108FA00046EA0500C4F800010FE0A1F10805AD0094
:108FB0000F2606FA05F600FA05F5D4F8047127EA3B
:108FC000060646EA0500C4F804010B4808188000AC
:108FD00002600A4A88188200012000FA01F013603A
:108FE000044B074AC3F81C0189189DF81430880007
:108FF0000360F0BD006000404008831060088310EB
:1090000080088310F0B582B10125242405FA01F50A
:1090100033B1444304F1804606F5C0473D6104E0A6
:1090200004FB00F61B4FF41965604FF0240505FBA7
:1090300000F4072904F1804606F5C0440BD88D00E2
:109040000F2606FA05F602FA05F5676827EA06060E
:10905000354365600DE001F18045083DAD000F2608
:1090600006FA05F602FA05F5A76827EA060635436B
:10907000A56072B90124242204FA01F150432BB1F6
:1090800000F1804202F5C0431961F0BD014BC018E8
:109090004160F0BD10600040036CDB0702D4426CFD
:1090A0001142FCD1704747F6F8730B4003F580710D
:1090B000B0FBF1F201FB12000302B3FBF1F101EB93
:1090C000022070470A4B10B59842044605D003F5BC
:1090D0008060844209D1074800E00748FFF7C8FADA
:1090E000E168BDE81040FFF7DEBF002010BD00BF03
:1090F00000400840401516004005140038B50446ED
:10910000154661B90D4B984205D003F58060844245
:1091100012D10B4800E00B48FFF7AAFA01464901BB
:10912000B1FBF5F2203AD30047F6F8751D40204612
:109130000421FFF7B1FFE56038BD00BF00400840E3
:10914000401516004005140038B5CD4305F0050262
:1091500041EA420504460221FFF79EFF656038BDE3
:1091600029B1436C002BFCD10121016470470164DB
:10917000704770B50D4602210446FFF78DFF0A23A4
:109180006360666C002EFCD10120206421682A7B7C
:1091900021F01C03697B42EA0300AA7B08431043C9
:1091A000206069682046AA68FFF7A8FF2B786360F3
:1091B000266470BD436C002BFCD101220264EA21BD
:1091C00040F2F97241600360C360036143618363ED
:1091D0004263C36343650364704783689A06FCD5A2
:1091E000C069C0B2704783689906FCD5806980B2B7
:1091F000704738B504460D46A368D806FCD520460E
:109200004021FFF749FFA56238BD38B504460D4639
:10921000A368DB06FCD520462021FFF73DFF6562F1
:1092200038BD38B504460D460121FFF735FF2368E8
:1092300015B143F4005001E023F40050206038BD24
:1092400038B504460D460121FFF726FF236815B106
:1092500043F4805001E023F48050206038BD0000CA
:1092600070B5044616461D4619B91348FFF700FAB3
:109270000146402D0BD004D83DB1202D1AD1082332
:1092800006E0602D16D1042302E0102300E006233F
:109290007343890001EB5300B0FBF3F2131F226804
:1092A0009901064822F060032360084021680D43BD
:1092B0002560606170BD00BF10810200C0FF1F000B
:1092C00010B50F4C0C405AB9202B0AD0402B04D0BB
:1092D000002B0CBF1023402303E08023032201E076
:1092E0008023012204F580746243B0FBF2F102FB9B
:1092F00011005843B0FBF2F203FB012010BD00BF88
:10930000C0FF1F0070B5044605680648FFF7B0F9B6
:109310002368616905F0010203F06003BDE8704055
:10932000FFF7CEBF1081020038B50546144619B9C3
:109330000748FFF79DF90146631E03EB4101B1FBAE
:10934000F4F08401034A403C22406A6138BD00BF0A
:109350001081020000FF1F00CB4303F00502530001
:10936000C360C160704783684A7823F037030AB14D
:1093700043F020030A780AB143F0100389780B43C5
:1093800083607047002140F6AA6341F20502C36082
:1093900001604260054A41F6F97390428160416183
:1093A000C1648364416508BF0165704700C0004027
:1093B00038B50C460546FFF7E5FF238A2968A27BEE
:1093C00043F0010083B20B43002A14BF4FF48060C6
:1093D0000020217B03432B6041F48053A2686B6023
:1093E00028466168FFF7A0FF627B0AB11020E860A1
:1093F0002178E96038BD38B50C460546FFF7C2FF55
:10940000228A637BE18942EA030008436860A2681C
:1094100028466168237BFFF723FF2278EA6038BD86
:1094200038B5114D044621462846FFF7E4FF2B6866
:10943000217D43F480402860284619B12A6842F40F
:1094400000532B60217EA37D026D0B43617D43EAB7
:10945000C1031343E27D43EAC2110165036D43F08A
:109460000102026538BD00BF00C0004003691B0651
:10947000FCD5C069C0B270470369DA05FCD5406A03
:1094800080B270470369D905FCD5006A704703694B
:109490001B06FCD5806980B2704703695B06FCD56A
:1094A000416301698A06FCD5C069C0B2704703698F
:1094B0005A06FCD54163704703695B06FCD5C1635E
:1094C000704703695A06FCD58163704703695B06E0
:1094D000FCD501637047000010B504460748FFF74C
:1094E000C7F8226806492369C2F301228A5C013366
:1094F0005343191DB0FBF1F010BD00BF10810200F5
:10950000046F010070B504461E461546D2B10368CB
:1095100023F440702060226842EA0623236019B9D0
:109520000948FFF7A5F80146084AA800935D091A03
:109530005D43B1FBF5F021688B0702D5002808BF19
:109540000120206170BD00BF10810200046F010086
:1095500000F10470420111607047000038B50C46FC
:10956000657800224263084985F0010200F1047524
:109570006B0101635A606168A268237BFFF7C2FF39
:1095800020786D01286038BDCFFF01000449002319
:10959000036003614361836143630163704700BFFC
:1095A000CFFF01009E4BF0B5984240F052819D489C
:1095B0008168057842880379994EB06A344610F480
:1095C000C06F0FD0974910F4007F0B714A800B4693
:1095D00001D0FD2002E0420501D5FE20587009228D
:1095E0001A7028E1082D00F21F81DFE815F009004C
:1095F00028005400670087009F00CB00E3000D01A6
:10960000884F48883B7100F010037A809AB232B1DB
:109610000A88110A01F0060747F0F00308E00988FC
:1096200000F00207B8B201F0FE0308B143F00103F5
:109630007B497C4A012010704B624860FBE010F0CF
:10964000800F40F0A280400602D4764F01215CE0FA
:109650004F88402007F01005ADB2714C30633DB12A
:10966000704F02207A800A783B7138706262E2E0C3
:1096700007F0020087B2002F00F09A80694803715A
:1096800001EBC3031989428007220129027040F0CF
:10969000D280082283E010F0800F76D1400602D4F9
:1096A000604F022131E0402535634E8806F0020408
:1096B000A7B2002F14BF032505257DE7594F7A80F7
:1096C0004A883B7102F0100398B230B10F883B0A10
:1096D00003F0060040F0F00702E0098801F0FE0701
:1096E00002F0040291B209B147F001074C4A4D481B
:1096F000042301210370516057629CE010F0800F39
:1097000043D1400605D4474F042139707A803B711C
:1097100091E048884027376300F00407B8B200287A
:1097200046D0404907274A800B7183E001EBC30014
:10973000048994421CD84F88013307F0040080B29A
:10974000DBB210B10022032536E717F0010208D082
:10975000344F78803B71334B082018700227304B10
:1097600047E0012B7FF628AF2E494A800B71F2E7C4
:109770002C490B7143682A489F5C013247624A803A
:10978000062757E010F0800F0BD02649FF270B71FA
:10979000082080234A80236302224F700870626091
:1097A00049E0400602D41F4F0621AEE7402434634F
:1097B000052501E71B4C0725800625706280237173
:1097C00039D501EBC3031A89608815499042CF69E6
:1097D00003D25B68411C1F546180124F104B798883
:1097E000914208D3012A01D108215960082038701C
:1097F00002275F601FE00420012A58601BD0013A55
:10980000914218D10827F4E7064908244A80C20586
:109810000C700B710FD5024F4FF480723A6308E061
:1098200000A00040240A00200C490B71FB234A8051
:109830004B7009270F70094B197809290BD193F93F
:1098400001000749002201284A6308BF5A7058786E
:1098500002E0FC2000E0012040B2F0BD240A00201C
:1098600000A00040174B984229D18268D30701D548
:1098700020234360488800F0020293B213B10A89A2
:10988000002A1CD000F0040083B20BB10A8AB2B1E6
:109890000D4B002201201A711A7058705A8099607D
:1098A000084BC02159609A6A0848910648BFDA6996
:1098B000186304484FF4FC615963FFF773BE6FF0FF
:1098C0000300704700A00040240A0020CFFF0100E1
:1098D000034B1A6AD20702D4596A0842FCD1704776
:1098E0000000084020B1012805D1044BD86870471A
:1098F0000248806870470020704700BF00000840A1
:1099000038B50D4620B1012807D10420034C01E0F1
:10991000034C0220FFF7DCFF256038BD0C00084037
:109920000800084010B504460120FFF7D1FF4FF0B2
:1099300086431C6010BD0000054B30B15A6A002AF6
:10994000FCD103490120086270471862704700BFCC
:1099500000000840437810B504780BB144F00204CD
:10996000807808B144F004040120FFF7B1FF0149F9
:109970000C6010BD00000840044B00221A621A60FF
:109980009A60DA60DA619A61704700BF00000840AF
:10999000002008B5FFF7C6FF0120BDE80840FFF72B
:1099A000C1BF0000064B1A6902F03F0101709A69BD
:1099B000DB6902F0F001C3F30312114341707047F9
:1099C000D0FF0FE0074B5A68013208D0196888426F
:1099D00001D158687047044A08339342F3D10020FC
:1099E000704700BF0080E00F9081E00F09B10123B4
:1099F00000E00223436070470B7810B50BB90222D8
:109A00004260CA78002444628C78120442EA0462FC
:109A10008C7922430C7942EA84224C7942EA04226E
:109A20004C78002C14BF402400242243CC79002C15
:109A300014BF8024002422430C7A002C14BF20245D
:109A4000002422434C7A897A002C14BF102400246D
:109A50002243002914BF082100210A4302600BB1F0
:109A60000123436010BD537810B514781B0643EAF8
:109A70008463947903312343947843EA0443D4788C
:109A800043EA0433147943EA8423547943EA0423F0
:109A9000D479002C14BF4FF4001400242343147A0B
:109AA000002C14BF4FF4801400242343547A927A7C
:109AB000002C14BF10240024002A14BF042200220A
:109AC000234313430A01835010BD0023C0F888309C
:109AD00070470021022340F27372436001604FF629
:109AE000FF73C16082614CF68062C36101624162B2
:109AF00001634163C16301644164C16401654165FF
:109B0000C165C0F88820016741678167C1670F217F
:109B1000C0F8841070474CF68063C0F888307047F6
:109B200037B5002840F097804C4B187800F00201C0
:109B3000CAB2002A40F0908004F040FC04F014FE09
:109B40000A24FF20013C04F003FC14F0FF04F8D1C8
:109B50002046214604F0CAFD0128054601D0002513
:109B600064E04FF47A7004F021FE08204FF4D571C0
:109B700004F0BCFD012838D1FF2004F0E9FB01AD61
:109B800028550134042CF7D19DF806000128E6D1B0
:109B90009DF80730AA2BE2D104F012FE28B104F0A0
:109BA0000FFE01460028DAD107E0A9204FF08041DE
:109BB00004F09CFD0028EFD1F1E73A2004F096FD77
:109BC0000028CCD10546FF2004F0C2FB01A948556E
:109BD0000135042DF7D19DF8042002F04004E0B2D5
:109BE00000280CBF04250C2520E0A920214604F004
:109BF0007DFD012802D80225A92400E02C4604F0AE
:109C0000DFFD014660B104F0DBFD0028A7D1102084
:109C10004FF4007104F06AFD002818BF002505E02C
:109C2000204604F063FD0028E9D1ECE70C4B0B4C17
:109C30001D8004F0ABFB35B1207820F001032370C8
:109C400004F0A2FD05E004F0DFFB217841F0010201
:109C50002270207800E001203EBD00BF0C000020F3
:109C6000300A002010B9024B187870470120704765
:109C70000C00002038B50D461C461146002836D190
:109C8000002B34D01C4B1878C30732D41B4A1388DE
:109C900003F0080082B202B94902012C0DD1112053
:109CA00004F024FDE8B928464FF4007104F06EFC7E
:109CB000D0F1010438BF002413E0122004F016FD97
:109CC00078B928464FF4007104F060FC28B1013CDB
:109CD00014F0FF0405F50075F3D10C20002104F009
:109CE00005FD04F053FB201C18BF012038BD0420E3
:109CF00038BD032038BD00BF0C000020300A002012
:109D000070B50D4616461C46002845D1002B43D0A1
:109D1000244B1878C20741D400F00401CAB2002ACB
:109D20003ED1214B188800F008018AB202B97602B0
:109D3000012C0DD11820314604F0D8FC30BBFE2197
:109D4000284604F079FCD0F1010438BF00241DE05E
:109D500010F0060F03D09720214604F0C7FC19200D
:109D6000314604F0C3FC88B92846FC2104F064FCA9
:109D700028B1013C14F0FF0405F50075F4D1002072
:109D8000FD2104F059FC002808BF012404F0FEFA6C
:109D9000201C18BF012070BD042070BD032070BDC1
:109DA000022070BD0C000020300A0020F0B51546DE
:109DB00085B0002840F0F2807B4B1A78D00700F184
:109DC000EF800E2900F2E680DFE811F00F001B00A3
:109DD00054005800E400E400E400E4001700E4004C
:109DE000AF00B300B500C100D10004F0D7FA08B944
:109DF0000124D0E004F0CAFA01E001221A70002424
:109E0000C9E00920002104F071FC04460028EFD1CC
:109E10006846102104F0BAFB0028E9D09DF8002024
:109E20009DF808309109012906D19DF8090000EB41
:109E30000322511C880244E09DF80700820002EBD7
:109E400093119DF8063003F0030001EB80229DF88A
:109E50000510501C9DF80A2001F00F0303EBD211EE
:109E60009DF8093003F0030201EB4201CB1F00FA19
:109E700003F026E04FF400742C80C0E74B4E33888B
:109E800003F00404A1B2F1B18D20002104F02EFCF6
:109E90000028ADD1FF2004F05BFA6846102104F0E1
:109EA00075FB0028A4D03024FF2004F051FA601E76
:109EB00010F0FF04F8D19DF80A201023110903FACD
:109EC00001F0286067E0092004F010FC0746002834
:109ED0008ED16846102104F059FB002888D03088C4
:109EE0009DF80A2000F002018CB284B19DF80B109D
:109EF00002F03F04CB0903EB44009DF80D40421CE7
:109F0000A1094B1E02FA03F23C462A6043E09DF889
:109F10000B30C2F3840003F003025B09411C03EB26
:109F2000C200421C4A432A6035E02048018829705B
:109F300065E7092000E00A20002104F0D7FB002893
:109F40007FF456AF2846102104F020FB1DE03A2094
:109F5000002104F0CBFB00287FF44AAF0446FF2029
:109F600004F0F6F928550134042CF8D147E78D2088
:109F7000002104F0BBFB00287FF43AAFFF2004F07F
:109F8000E7F92846402104F057FBD0F1010438BF1F
:109F9000002400E0042404F0F9F902E0042400E0C5
:109FA0000324204605B0F0BD0C000020300A00203C
:109FB00010B500239CB2A24203D0CC5CC454013340
:109FC000F8E710BD036970B501F10904002B39D021
:109FD0004369002220469D5C0446202D08D0052DB3
:109FE00008BFE525013200F8015B082A0446F2D1DA
:109FF0001A7A202A0FD002462E2402F8014BDE1DC9
:10A00000043016F8015F1446202D04D002F8015BDD
:10A0100082421446F5D1DA7A0A729A7FD87F120406
:10A0200042EA0062187F0243587F42EA00220A6037
:10A030001A7E587E42EA00208880DA7D9B7D43EAC2
:10A040000220C8800021217070BD2DE9F041056B10
:10A0500004468D420E4602D10020BDE8F08103790E
:10A0600013B9002EF8D01FE000F1340841464078C3
:10A070002A460123FFF744FE10B10120BDE8F0811C
:10A080002071226A606A11188D42EAD2E778012FA6
:10A09000E7D9236A6078ED1841462A460123013F3B
:10A0A000FFF72EFEFFB2F2E7607804F1340132468A
:10A0B0000123FFF7DFFD0028DFD12663BDE8F08133
:10A0C00038B500210446FFF7C0FF0346002B50D1EE
:10A0D0002278032A45D16079002842D0236304F115
:10A0E00034010025CD540133B3F5007FF9D152235B
:10A0F00084F8343084F835306123AA2084F836306F
:10A1000084F81B32236984F833027220552284F8C4
:10A11000180284F81902180C84F8322284F81E02FE
:10A120004122E06884F8372084F81A2284F81C322F
:10A13000C3F307221B0E84F81D2284F81F32C0F3DC
:10A140000722030C84F82002000E84F8212284F8F0
:10A15000223284F82302626960780123FFF7D0FD80
:10A160006571002160780A46FFF720FE003018BFB5
:10A17000012038BD08B568B103785BB1C2888A4256
:10A1800008D14078FFF76EFD10F0010F0CBF0020E2
:10A19000032008BD092008BD10B504460A464078D2
:10A1A00004F134010123FFF765FD80BB94F83322ED
:10A1B00094F8323243EA0221174B0AB29A4228D16C
:10A1C00094F86C2094F86D10130494F86A2043EA14
:10A1D000016194F86B30114341EA03210F4B21F0E8
:10A1E0007F429A4216D094F8880094F889100204AD
:10A1F00094F8860042EA016194F88720014341EA1D
:10A20000022121F07F40C01A18BF012010BD032099
:10A2100010BD022010BD00BF55AAFFFF46415400EB
:10A220002DE9F041154602681378303B9BB2092BAB
:10A2300005D854783A2C02D10232026001E0B848C5
:10A240000378002B40F05A81B64C24680C60002C37
:10A2500000F05781217881B16078FFF703FDC107D5
:10A260000BD4002D00F0508100F00401C8B200288A
:10A2700014BF0A200020BDE8F0810020207060702B
:10A28000FFF74EFCC20700F142812DB100F004003F
:10A29000C3B2002B40F03E8100212046FFF77CFF37
:10A2A000012818D194F8F62112B90D20BDE8F081EB
:10A2B00094F8FC6194F8FD11300494F8FA3140EA06
:10A2C000016294F8FB111A4342EA01262046314606
:10A2D000FFF762FF00E00026032800F01E8100283F
:10A2E000E3D194F8400094F83F2042EA0023B3F50C
:10A2F000007FDAD194F84B5094F84A1051EA0521C6
:10A300000DD194F85A2094F85B0094F85810130477
:10A3100043EA006594F859000D4345EA002194F89A
:10A32000445021626A1E012AE570BED894F841208B
:10A33000A270002AB9D0531E1342B6D194F8460039
:10A3400094F8453043EA002398B21B072081ACD132
:10A3500094F8487094F8473053EA07230DD194F8E5
:10A36000563094F857701B0443EA076394F854700E
:10A370003B4394F8557043EA072394F8438094F8DC
:10A38000427057EA082890D005FB01FC08EB101733
:10A390006744BB4289D3DB1BB3FBF2F3002B84D0B1
:10A3A00040F6F575AB4206D94FF6F57293428CBF75
:10A3B0000325022500E001250233BF1906EB080240
:10A3C000032DE361E762626213D100287FF46DAF71
:10A3D00094F8622094F86300120442EA006294F850
:10A3E0006000024394F8610042EA0022A2629800F1
:10A3F0000FE000283FF459AF0CEB0200022DA062E1
:10A4000001D1580005E003225A4303F0010303EB96
:10A41000520000F2FF13B1EB532FFFF446AF0020C0
:10A420004FF0FF31032D2161E0605AD194F865208F
:10A4300094F86430607143EA0221721862616078B6
:10A4400004F134010123FFF715FC002849D194F8E9
:10A45000330294F8322242EA0023334819B281428F
:10A460003FD194F8362094F83730110441EA036064
:10A4700094F8343094F83520184340EA02212B48F0
:10A4800081422ED194F81A2294F81B32110441EA29
:10A49000036094F8183294F81922184340EA022114
:10A4A000234881421DD194F8223294F823221904C2
:10A4B00041EA026094F8202294F82132104394F883
:10A4C0001E2240EA032194F81F021304E16043EACC
:10A4D000006194F81C0294F81D22014341EA022312
:10A4E0002361144925700888421C93B200200B8018
:10A4F000E38020632071A061BDE8F0810B20BDE8FE
:10A50000F0810C20BDE8F0812846BDE8F0810320F1
:10A51000BDE8F0810A20BDE8F0810120BDE8F081AE
:10A52000320A0020380A002055AAFFFF525261412A
:10A5300072724161340A0020C36902399A1E914245
:10A5400004D28278C06A02FB010070470020704785
:10A550000129F8B504460D4660D9C36999425DD218
:10A56000017802292BD003293AD0012953D1AEB268
:10A5700006EB5602436A96B203EB5621FFF765FDE0
:10A58000002848D1711C626AF0058EB204EBD057E6
:10A5900002EB5621204697F83470FFF756FD00284D
:10A5A00039D1F60504EBD65494F8343047EA032049
:10A5B000EB0701D50009F8BD0105080DF8BD416A9A
:10A5C00001EB1521FFF741FD28BB2D06ED0D6319A9
:10A5D000641993F8342094F8350042EA0020F8BD5D
:10A5E000426A02EBD511FFF730FDA0B96D06ED0D03
:10A5F000631993F8370093F83610343302065B780A
:10A60000641942EA014194F8342041EA03201043DE
:10A6100020F07040F8BD4FF0FF30F8BD0120F8BDCC
:10A6200070B504460D46E1808168012901D1022000
:10A6300070BD0368DA699142F9D271B918780328BC
:10A6400001D1996A49B919890020A942E060EED97F
:10A650009B6A03EB1512226119E09E783601B54220
:10A660000ED32068FFF774FF421C014618D0012862
:10A67000DDD92368DA699042D9D2AD1BADB2EEE7DD
:10A68000E1602068FFF758FF00EB15112161206899
:10A6900005F00F0500EB451134316161002070BDFC
:10A6A000012070BD10B5C1880446FFF7B9FF50B94D
:10A6B00020682169FFF7C9FC28B96369E5221A708F
:10A6C000216801230B7110BD0129F8B504460D4620
:10A6D000164675D9C369994272D2017802293DD0D4
:10A6E00003294CD0012967D1AFB207EB5702436A67
:10A6F00097B203EB5721FFF7A8FC00285DD1F805BE
:10A70000C20D15F00105F3B207D0A11891F834007D
:10A7100000F00F0141EA0313DBB20137616A012047
:10A72000A218BFB2207182F83430204601EB5721C5
:10A73000FFF78BFC002840D1FB05DA0D15B1C6F3FD
:10A74000071607E0A71897F83410C6F3032621F080
:10A750000F031E43A71887F834602EE0436A03EB0B
:10A760001521FFF772FC40BB2D06E90D621882F837
:10A770003460C6F30726154682F835601DE0426A4C
:10A7800002EBD511FFF761FCB8B96D06E90D63184E
:10A7900093F837201D46110601F070421643C6F3A8
:10A7A0000721320C83F83460360E83F8351083F8B5
:10A7B000362083F8376000E0022001232371F8BDC2
:10A7C0000220F8BDF8B505460F4631B9C6686EB12E
:10A7D000C069864228BF012609E0FFF7B9FE0128BB
:10A7E0003BD9EB69984239D33E4600E00126344616
:10A7F000E96901348C4204D3012E01D80020F8BD50
:10A80000022428462146FFF7A3FE48B1431C02D18B
:10A810004FF0FF30F8BD01281FD0B442E8D1EDE77A
:10A82000284621466FF07042FFF74EFF98B947B9AE
:10A830002A69EC60511C0CD0531E01202B616871F9
:10A8400007E0284639462246FFF73EFF0028EFD0B2
:10A8500001E02046F8BD0128DAD00120F8BD2DE93D
:10A86000F843C6880446701C86B20F4616B9042009
:10A87000BDE8F8832369002BF9D016F00F085CD1EE
:10A88000591C2161E168206819B90289B242EED9E8
:10A8900053E08278531E13EA16124ED1FFF758FE8A
:10A8A0000128054602D80220BDE8F883411C02D1E8
:10A8B0000120BDE8F8832068C1698D4237D3002F9D
:10A8C000D5D0E168FFF77EFF054600283ED001287D
:10A8D000E9D0421CECD020680021FFF7B6FB00282D
:10A8E000E6D122683432002717540130B0F5007FDA
:10A8F000F9D1D4F8009029464846FFF71DFEC9F863
:10A90000300020688378BB420ED901220271206892
:10A910000021FFF79AFB0028CAD120680137036B9A
:10A92000FFB2591C0163ECE7016BCF1B0763E560C5
:10A9300020682946FFF700FE20612068E68000EBD2
:10A940004813343363610020BDE8F8830720BDE875
:10A95000F88300002DE9F0410B7804462F2B0E46BA
:10A9600001D05C2B02D10136002101E00068816931
:10A97000A16032781F2A44D820460021FFF750FEFC
:10A9800000226261BDE8F0815C2D3AD0A569002308
:10A990002026EE5401330B2BFAD101782E293DD11C
:10A9A000297043782E2B32D16B70837803262F2B9E
:10A9B0002FD18619202B8CBF20232423EB72204615
:10A9C0000021FFF72DFE30B920682169FFF73DFB1C
:10A9D000002800F08280A169CB7A002800F09680E0
:10A9E000042840F0B58003F02000C2B203F0040157
:10A9F000002A00F092800023A3606361002940F0E8
:10AA000089803578304601362F2DBDD1F9E70226F1
:10AA1000CDE75C2BCDD0202B5CD8CAE7002637468B
:10AA200008213246C35D0137202BBFB21BD92F2B23
:10AA30001BD05C2B19D02E2B45D08E424AD213F05E
:10AA4000800F06D0DFF80CC1803B1CF8033042F0C9
:10AA50000302DFF8048118F801CFBCF1000F1DD00C
:10AA60009C45F8D136E0042300E0002396B32E780D
:10AA7000E52E01D105262E70082901D19100CAB218
:10AA800002F00306012E02F00C0108BF43F0100390
:10AA9000042908BF43F00803C6198FE7A3F1410C4E
:10AAA000BCF1190F02D842F0020208E0A3F1610CD8
:10AAB000BCF1190F03D8203B42F00102DBB2AB55C9
:10AAC0000136B6B2AEE7082904D192000E46D2B2E2
:10AAD0000B21A7E70620BDE8F0816269117899B1E2
:10AAE000D37A03F00801CBB24BB9A7690346D55C12
:10AAF000F95C01338D4202D10B2BF8D16BE7204674
:10AB00000021FFF7ACFE5EE7042064E703F00400D9
:10AB1000C2B242B10020BDE8F081002914BF042078
:10AB20000520BDE8F0816369D97A01F01000C2B256
:10AB30005AB15D7D197DDA7E9B7E41EA052043EAAC
:10AB4000022545EA0041A1605BE70520BDE8F081F0
:10AB5000BDE8F081086F0100876F010038B5002162
:10AB60000446FFF75DFD054618BB20682169FFF725
:10AB70006CFA0546E8B963691878E52805D020B174
:10AB800020460121FFF76BFEEDE720682169FFF702
:10AB90005CFA054668B960692946002242540131D1
:10ABA0002029FAD1A1690B22FFF702FA23680120BC
:10ABB0001871284638BD10B5042304462169A9B18F
:10ABC0002068FFF742FAC0B963691A78A2B1E52A92
:10ABD00004D0D97A01F00803DAB282B1204600210C
:10ABE000FFF73DFE03460028E8D006E0184633B1E3
:10ABF00000202061184610BD04200346F8E710BD70
:10AC0000012970B504460D4622D9C36999421FD265
:10AC1000E069854205D220462946FFF799FC0646A1
:10AC200008B9002070BD012812D0411C0ED020466A
:10AC300029460022FFF748FD58B921694A1C03D074
:10AC40004A1C0125226165713546E1E7012070BD8E
:10AC5000022070BD38B50C4680B9094A1368154604
:10AC600003B1187014B10020207004E0607808214E
:10AC70002246FFF79BF82C60002038BD0B2038BD22
:10AC8000380A00202DE9F0418CB0054600230CA8BD
:10AC900040F82C1D174605A92B6002F01F0602F094
:10ACA0001E02FFF7BDFA02A90B9118B905A8019978
:10ACB000FFF750FE0A9C18B9002C0CBF062000209C
:10ACC00017F01C0F49D048B1042802D105A8FFF79E
:10ACD00045FF46F008060A9C48B179E0E17A11F098
:10ACE000110F74D107F00400C7B2002F6BD106F02A
:10ACF0000802D3B2002B3ED003F06CFD010CC0F370
:10AD00000727A073000E227DE7732174677DE17E23
:10AD10006074A07E002342EA072740EA01220598DA
:10AD2000E37223776377A377E377A376E3762375DC
:10AD30006375012352EA074703711CD03946D0F8E6
:10AD40003080FFF75DFF002842D10598013FC760C2
:10AD50004146FFF77AF970B13AE0002838D1E07A3D
:10AD600000F01002D3B2002B2FD107F00207FFB280
:10AD70000FB1C0072BD406F00801C8B208B146F0E5
:10AD80002006059B1A6BAE71EA612C62207D617D05
:10AD9000A27E40EA0121E07E42EA002040EA014131
:10ADA0002961A27FE07F1104227F41EA0060617F78
:10ADB000104340EA01202B60DB88E8600020A86097
:10ADC000A861AB8004E0082002E0042000E0072036
:10ADD0000CB0BDE8F0812DE9F74F9A4600230446F8
:10ADE000AAF8003088460068A1881646FFF7C2F925
:10ADF0000546002840F0AA80A179080600F1A3804A
:10AE0000C90740F1A280E268A068131A9E4243D9A4
:10AE10009EB241E0A168CB0540F085802068827831
:10AE2000531E03EA512212F0FF0338D0D4F800B0C9
:10AE3000616958460193FFF77FFB019B00283CD0D6
:10AE40005FEA562900EB030749D09BF8020003EBA9
:10AE500009018142C4BFC3EB00091FFA89F95FFAF7
:10AE600089F39BF8010041463A46FEF703FFA379B8
:10AE7000002852D103F04003DAB21ABB4FEA49214D
:10AE80008FB2A368BAF80000DA193918F61BA2606D
:10AE9000B844AAF80010B6B2002EBBD156E009B9EA
:10AEA000206904E061690193FFF752FB019B0128CF
:10AEB00003D9421C30D06061B8E7A27962F07F000C
:10AEC000A07140E0A069C71B4F45D7D208EB4720CF
:10AED00004F124014FF40072FFF76AF8CEE7A2698B
:10AEE000BA421FD0A07900F04001CBB25BB1012380
:10AEF0009BF8010004F12401FEF702FFA37960B979
:10AF000023F04002A271214651F8240B3A464078C2
:10AF10000123FEF7AFFE28B1A37963F07F05A57189
:10AF2000012513E0A761A7684046F905CB0DC3F5DD
:10AF3000007297B2BE4238BF3746E11824313A4614
:10AF4000FFF736F89DE7022500E007252846BDE813
:10AF5000FE8F2DE9F74F994600230446A9F80030EB
:10AF600088460068A1881746FFF704F905460028BF
:10AF700040F0BC80A07901065BD400F00201CAB2A7
:10AF8000002A00F0B280E368DF4228BF002734E0E7
:10AF90005FEA572B00EB0A0678D098780AEB0B0192
:10AFA0008142C4BFCAEB000A1FFA8AFB58784146A7
:10AFB00032465FFA8BF3FEF7A3FE002875D1A26933
:10AFC000961B5E450BD204F1240008EB46214FF49A
:10AFD0000072FEF7EDFFA37923F04000A0714FEA65
:10AFE0004B218EB2A268B9F8000093193118BF1B2B
:10AFF000A360B044A9F80010BFB20FB3A168CA059E
:10B000005AD1206890F802A00AF1FF3202EA5123D7
:10B0100013F0FF0A1DD171B9216921B9FFF7D2FBE5
:10B020000146206161B10129A3790FD163F07F024C
:10B03000A27102255AE06169FFF7C4FB0146F1E7FE
:10B04000A068E16888424BD9E06049E04A1C2DD0F5
:10B050006161A07900F04001CAB262B1214651F8A5
:10B06000243BA26958780123FEF74AFEA379E8B988
:10B0700023F04000A0712268616910460192FFF739
:10B080005BFA019B002883D1A379CFE7A169B14284
:10B0900011D0A068E26890420DD2587804F12401E2
:10B0A00032460123FEF7E6FD28B1A37963F07F0560
:10B0B000A57101251AE0A661A668F305D90DC1F5B1
:10B0C000007086B2B74238BF3E4660183246243020
:10B0D0004146FEF76DFFA27942F04003A37181E77C
:10B0E000A37943F02002A27100E007252846BDE8BD
:10B0F000FE8F38B50446A1880068FFF73BF80028AA
:10B100004CD1A37903F02002D1B2002946D003F03C
:10B110004000C3B26BB1214651F8242B0123507873
:10B12000A269FEF7EDFD002837D1A17921F040009A
:10B13000A0712068E169FEF788FF00282ED1256AFA
:10B14000EB7A43F02002EA72E1682977A089030ACA
:10B150006B77E289AA77E17BE9772069A876238A71
:10B160001A0AEA76618A2975608A030A6B7503F008
:10B1700031FBA875010CC0F30722000EEA75687652
:10B180002976A3792168012023F02002A271087199
:10B190002068BDE83840FEF793BF012038BD10B5E8
:10B1A0000446FFF7A6FF00B9206010BD10B9024B9E
:10B1B000187070470B207047320A002000B58DB020
:10B1C0000CAB43F82C0D184605A90022FFF728F810
:10B1D00008BB02A80B90019905A8FFF7BBFBA8B913
:10B1E0000A9B0BB9079A0EE0DA7A02F01001CAB294
:10B1F00082B1597D1A7D42EA0122D97E9B7E43EAC3
:10B20000012141EA0242059B9A6104E0042808BF3B
:10B21000052000E005200DB000BDF8B504460D4640
:10B220000068A188FEF7A6FF0646002840F093803C
:10B23000A279110600F18E80E3689D4205D902F0E3
:10B240000200C1B2002908BF1D460022A368A26007
:10B250000DB900254DE0206887787F026BB1013B76
:10B26000691EB1FBF7F1B3FBF7F2914205D37842C7
:10B270000340A360ED1A61690AE0216939B9FFF75B
:10B28000A1FA012801462DD0431C52D020616161F2
:10B290000029DED0BD421CD9A379206803F0020248
:10B2A000D3B223B1FFF78EFA014618B910E0FFF7C9
:10B2B0004FF90146481C3CD0012913D92068C269C6
:10B2C00091420FD2A3686161D819A060ED1BE1E73C
:10B2D0003D46A2685319A360EB05BAD02068FFF77A
:10B2E0002BF920B9A07960F07F02A27132E000EB67
:10B2F0005525A168CB0523D0A269954220D0A0791D
:10B3000000F04003D9B259B1214651F8240B012372
:10B310004078FEF7F5FCA17960B921F04002A271F6
:10B32000214651F8243B2A4658780123FEF7A2FC17
:10B3300028B1A17961F07F06A67101260BE0A56115
:10B34000A168E068814206D9A279E16042F0200359
:10B35000A37100E002263046F8BD10B586B0044661
:10B3600006A840F8141D00222146FEF759FF20BB15
:10B3700003ABA36120460199FFF7ECFAC0B96069FD
:10B3800078B1C27A02F01001CBB2ABB1417D027D3F
:10B3900042EA0122C17E807E40EA012343EA024262
:10B3A000A2602168C8880021A0802046FFF738F9F4
:10B3B000042808BF052000E0052006B010BD7FB5B9
:10B3C00004460E460068A188FEF7D4FE0546E8B99B
:10B3D00026B920462946FFF723F916E001ABA36101
:10B3E0002046FFF7E8FB042801D1256100E060B9A1
:10B3F00020463146FEF7E6FD00212046FFF72FFAF2
:10B40000042802D10020206100E00546284604B04F
:10B4100070BD30B58DB00CAB43F82C0D0D46184601
:10B4200005A90022FEF7FCFE044678B902A80B909D
:10B43000019905A8FFF78EFA044638B90A9921B197
:10B4400005A82946FEF7BEFD00E0062420460DB003
:10B4500030BD2DE9F34702AB43F8040D884616468C
:10B46000114618460022FEF7DBFE0446002862D192
:10B470003068C7690269B91E8A4202D8C8F800203C
:10B4800059E090F80090B9F1010F11D1022725463B
:10B4900030683946FFF75CF8431C3ED001283ED0A7
:10B4A00000B9013531680137CB699F42F0D339E0EB
:10B4B000416A23462246254652B9306801F1010A05
:10B4C000FEF7C3FD68BB3368514634334FF4007256
:10B4D000B9F1020F09D193F801E0187850EA0E2073
:10B4E00008BF01350233023A13E0987893F803C09D
:10B4F000000493F800E040EA0C6093F801C040EAD1
:10B500000E0040EA0C2020F0704000B901350433F1
:10B51000043A013F92B2CFD104E0012402E00224B8
:10B5200000E004463068B9F1030F056101D1012242
:10B530004271C8F800502046BDE8FC8770B504464B
:10B54000A1880068FEF716FE054600283DD1A379C4
:10B55000190634D403F00202D0B2002831D0A66814
:10B56000E168B14231D943F02003E660A37120685D
:10B570002EB92169FFF744FB2661054619E0616990
:10B58000FEF7E6FF421C06461DD0012801D1022528
:10B5900010E02068C269964217D261696FF070426C
:10B5A000FFF792F8054628B920683146FFF728FBD7
:10B5B000054655B1A07960F07F01A17105E0022533
:10B5C00003E0072501E00125F4E7284670BD30B50A
:10B5D00095B014AB43F84C0D184606A90122FEF7AE
:10B5E0001FFE002855D103A80C90019906A8FFF76B
:10B5F000B1F900284DD10C99CA7A02F02003D8B2D3
:10B6000008B1062045E00B9B33B1DC7A14F0010F42
:10B610000CBF0020072000E006205D7D1C7DD97E48
:10B620009A7E002835D1DB7A44EA052042EA0124DB
:10B6300003F01001CAB244EA0044DAB1012C15D972
:10B640000DA806A91C22FEF7B3FC0DA802210F9439
:10B65000FEF7E6FFE8B90DA8FFF7ADFA40B10D9B84
:10B6600099698C4204D0042804D012E0022010E032
:10B6700007200EE006A8FFF715F850B91CB9069888
:10B68000FEF71EFD05E006982146FFF7B9FA0028EF
:10B69000F5D015B030BD2DE9F04F8FB00EAC44F8A9
:10B6A0002C0D03F097F807A9814601222046FEF7EA
:10B6B000B7FD0746002840F0C88004AB07A80399EF
:10B6C0000D93FFF747F9074650B1042840F0BD80BD
:10B6D0000D98C47A04F02001CCB21CB10627B4E066
:10B6E0000827B2E007982146FFF76CF8054628B115
:10B6F000012D09D00127681C01D007E00727079812
:10B700002946FFF77DFAA0E00227F8E707982146CF
:10B71000FEF79BFC07460028F1D1079C29462046EE
:10B72000FEF70AFF04F1340680463A460027B75474
:10B730000132B2F5007FF9D12022F25501370B2FEB
:10B74000FAD1C9F307201023E9B284F83F308DF80D
:10B750000900C5F3072384F84B00280C2E275FFA55
:10B7600089FBC9F3074A009184F84E108DF80A301E
:10B77000C1B284F84F304FEA1969030A84F8347073
:10B78000019184F8481004F1540084F84AB084F818
:10B790004CA084F84D9084F8493031468DF80B3038
:10B7A000FEF706FC84F85570079F099A387803283D
:10B7B00003D1B96A8A4208BF002284F86E20C2F31E
:10B7C0000723120C100A84F86F3084F8682084F87C
:10B7D0006900BC78B4B107980122C0F830800271CA
:10B7E0000021FEF732FC08F101080746002886D147
:10B7F0000146002070540131B1F5007FF9D1013CC0
:10B80000E4B2E7E707A8FFF7A9F9074600287FF4A5
:10B8100076AF0C9F9DF809309DF80A001021F9724F
:10B82000FB75009A01999DF80B30F876079887F818
:10B8300016B087F818A087F81990BA7639757B7515
:10B8400001270771FEF73CFC074638460FB0BDE8FC
:10B85000F08F30B58DB00CAB43F82C0D0C4615466F
:10B86000184605A90122FEF7DBFCF0B902A80B90EF
:10B87000019905A8FFF76EF8B8B90B99CA7A02F0DA
:10B880002003D8B280B90A9B73B1D97A05F0270298
:10B8900021EA0201144041EA0400D872059801230C
:10B8A0000371FEF70DFC00E006200DB030BD10B5B1
:10B8B0008CB00CAB43F82C0D0C46184605A90122A0
:10B8C000FEF7AEFCF8B902A80B90019905A8FFF7A6
:10B8D00041F8C0B90B99CA7A02F02003D8B288B9EE
:10B8E0000A9979B1E2888A75E388180AC875A2882E
:10B8F0000A76A388180A4876059801210171FEF797
:10B90000DFFB00E006200CB010BD30B59BB01AABD9
:10B9100043F8640D0C4618460CA90122FEF780FC82
:10B92000002840F084800C9803A9139012910CA871
:10B930000199FFF70FF8002879D1129AD37A03F012
:10B940002000C1B2002967D11199002962D006A850
:10B950000B311522FEF72CFB13A80CA91C22FEF7B5
:10B9600027FB13A82146FEF7F5FF002850D0042836
:10B970005DD113A8FFF7F2F8002858D1189C1322C4
:10B9800004F10D000DF11A01FEF712FB9DF81820CD
:10B990000C9942F020030120E3720871159B0E9A66
:10B9A0009A423BD0E07A00F01001CBB2002B35D0A8
:10B9B000627D207DA37E40EA0221E27E139D43EA60
:10B9C000022242EA01412846FEF7B6FD014668B36D
:10B9D0002846FEF73AFB139B48BB93F855102E29D7
:10B9E0001CD11A78032A03D19A6A1599914200D082
:10B9F0001598C0F3072283F86E00000C83F86F20BF
:10BA0000010A012283F8680083F869101A7105E0C1
:10BA100008200CE004200AE0062008E00CA8FEF74D
:10BA200041FE20B90C98FEF74BFB00E002201BB052
:10BA300030BD000072B6044B1A68511C01D0501C76
:10BA400018601868704700BF200A0020034B186870
:10BA500018B10138186000B962B67047200A00209A
:10BA600030B5164D8DB002AC0FCD0FC40FCD0FC445
:10BA700095E8030084E803004FF400400E230B9088
:10BA800002A8079302F04CFB00210CA800F82C1D23
:10BA90008DF805108DF80610FDF75CFF084BDA698C
:10BAA00042F00300D8610120FDF73CFF05494FF04B
:10BAB0008073C1F880310B600DB030BD986F01000C
:10BAC0000000084000E100E0024B03EBC0004160D1
:10BAD000704700BF480A0020064B30B513F83050BD
:10BAE000002403F8304003EBC0046170A27003F837
:10BAF000305030BD480A0020034B03EBC0004378B0
:10BB00000B70817811707047480A0020014B13F8C0
:10BB100030007047480A0020024B012203F8302011
:10BB2000704700BF480A0020024B002203F8302073
:10BB3000704700BF480A002010B5014600200C4A9B
:10BB4000136898420B4B09DC03EBC00254681CB924
:10BB500043F83040516010BD0130F0E71068002418
:10BB6000013043F8304003EBC0035960106010BD52
:10BB70003C0A0020700A0020034A002342F83030BB
:10BB800002EBC00043607047700A0020014B43F88D
:10BB900030107047700A0020024B002243F830201A
:10BBA000704700BF700A0020014B1860704700BF4B
:10BBB000400A002010B5094C4FF47A726368C00344
:10BBC000B0FBF2F1CB18012023F07F41FDF798FE86
:10BBD000034904200122A0610A6010BD0000084052
:10BBE00088030043034B0449002204201A60886143
:10BBF000704700BF8803004300000840F8B5124EAC
:10BC00000446FFF717FF776802F0C0FA0546FFF712
:10BC10001DFFE0034FF47A73B0FBF3F1CA1922F071
:10BC20007F44BC4208D9084B5968A1420BD202F0AC
:10BC3000ADFAA842F7D0F8BD02F0A8FAA842FBD0AE
:10BC40007068A042FCD3F8BD00000840054B5A685C
:10BC500059689142FCD00348426859689142FCD02F
:10BC6000704700BF00000840014B1860704700BFDC
:10BC7000440A002037B5A0B1FFF7DCFE002002F037
:10BC800015FA02AB43F8040D184603F07FF8074C91
:10BC900005460FCD0FC40FCD0FC428682060FFF7F5
:10BCA000D5FE03490A6802B190473EBD40260020F8
:10BCB000440A002038B5344C2369E5691D40EA0781
:10BCC00003D502F055FA0120A061AB0702D4680742
:10BCD00059D54EE0A168002001F5004222F07F41D5
:10BCE000FDF70EFE0223A3610120FFF7C3FF00242E
:10BCF000264801688C4212DC254850F8342062B195
:10BD000050F834104B1E40F8343033B900EBC40007
:10BD1000426812B14168204688470134E8E71D4A6D
:10BD20001D4B506893F900108142D0D01870002448
:10BD30001A4810F83420C2B100EBC4039978154AB0
:10BD400048B25168884210D1587841B2013104D0CC
:10BD50005B78926858B2904207D1104901EBC40356
:10BD6000586810B15A68204690470134052CDFD13D
:10BD7000ADE70B4B002119600A49034A0B68042008
:10BD8000906103B1984738BD000008403C0A00208C
:10BD9000700A0020402600200D000020480A0020E4
:10BDA00088030043400A002038B50446FFF742FEEE
:10BDB000054D0FCD0FC40FCD0FC42B682360BDE818
:10BDC0003840FFF743BE00BF402600202DE9F04178
:10BDD000114E124D04460F46FFF72CFE0FCDD6F83C
:10BDE0000480D6F808C00FC40FCD0FC430692B688B
:10BDF0008107236002D540F2E73107E0CCEB080170
:10BE00004A04530C4FF47A704343D90B3960BDE8B0
:10BE1000F041FFF71BBE00BF000008404026002095
:10BE2000F7B5002202620E4603F000FC1A490190A9
:10BE30000C6874B9086001A802F0A8FF174F054606
:10BE40000FCD0FC70FCD0FC728683860144801F019
:10BE50003DF8144C0020E769E0616568FDF762FD7C
:10BE6000636A13F0060FFBD11EB90E4A9168481B96
:10BE700001E04FF400400B4CA060E3685D1BE560FF
:10BE8000019802F069F9002002F07AF90120FDF72B
:10BE900049FDE761FEBD00BF64260020402600206A
:10BEA000C06F010000000840024A034801231370DC
:10BEB00003707047C00A00200029002010B5134805
:10BEC000134C01F017F8202364206360FFF796FEFF
:10BED0001048C269920717D40121416102230E481C
:10BEE000A36342680B49CB699B070AD40A4841689F
:10BEF0008B1A23F07F40B0F5203FF3D9074800F0BC
:10BF0000F9FF034903228A6310BD00BFDD6F010002
:10BF100000A0004000600040000008400A700100DE
:10BF200010B501211C48FCF731FB01211B48FCF72F
:10BF30002DFB012100200A220B46FDF763F80020AB
:10BF40000A2201460123FDF75DF8154803238363A8
:10BF50001449FDF703FB144C14484FF48072C0F8E9
:10BF60008021214602600120FFF7AEFD00220B2157
:10BF70000120FFF7B1FD0120FFF7CEFD0220214691
:10BF8000FFF7A2FD022017210022FFF7A5FD0220E6
:10BF9000BDE81040FFF7C0BD00C2020000F2020081
:10BFA00000A0004010000020A9BE000000E100E059
:10BFB00008B5074B4FF48072C3F880200548FDF7A1
:10BFC000E5FA05480021BDE80840FCF7DFBA00BFEC
:10BFD00000E100E000A0004000F2020008B50348C4
:10BFE000FDF7E0FA024B187008BD00BF00A000404A
:10BFF0006826002030B589B0044602F037F80028E2
:10C0000042D104200A230DEB0001ADF80E000220FE
:10C010000122ADF80C30049102ABADF81C0003A96D
:10C020001B4806938DF80440ADF81420FDF71AFC68
:10C03000184B18701978090601D51A781BE0164CB0
:10C040006568144C2278012A12D11448016921F044
:10C050000403036130BF104A5068411B21F07F4345
:10C06000B3F5804FEDD9FFF729FFF6222270E8E7FC
:10C07000207810B1227850B208E09DF809109DF8A0
:10C08000083043EA012001E06FF00B0009B030BD39
:10C0900000A00040682600200000084000ED00E0FD
:10C0A00070B5050AAA4286B004460E463AD301F09E
:10C0B000DDFF002839D1042000A90A230122ADF8B0
:10C0C000060002911B4801A9ADF804308DF800402C
:10C0D000ADF80C200496ADF81450FDF7C3FB164BD9
:10C0E00018701878000601D51A7819E0134C6568A5
:10C0F000114C2178012912D1114B186920F004014B
:10C10000196130BF0D4A5368581B20F07F41B1F5CB
:10C11000804FEDD9FFF7D2FEF6222270E8E72278B1
:10C1200050B204E06FF00A0001E06FF00B0006B0BF
:10C1300070BD00BF00A0004068260020000008403D
:10C1400000ED00E010B504468AB00920FFF752FF69
:10C15000002806DA4E4980B208804E4800F0CAFE38
:10C1600094E0022C51D14FF4815069462822FFF708
:10C1700097FF18B94848694600F0A8FE41F223002D
:10C1800069462822FFF78CFF18B94448694600F039
:10C190009DFE41F2210069462822FFF781FF18B970
:10C1A0003F48694600F092FE41F22200694628228B
:10C1B000FFF776FF18B93B48694600F087FE1C2060
:10C1C000FFF718FF011E02DB374800F07FFE192041
:10C1D000FFF710FF021E08DB4FF47A7392FBF3F1B6
:10C1E000324803FB112200F071FE1820FFF702FF16
:10C1F000011E02DB2E4800F069FE1020FFF7FAFE58
:10C20000011E02DB2B4800F061FE0F20FFF7F2FE5B
:10C21000011E07DB284A88B21080C4B1274800F00D
:10C2200055FE00E09CB11120FFF7E4FE011E0EDB7D
:10C230004FF6FD73994203DD214800F047FE06E00A
:10C240004FF4B4621F4891FBF2F200F03FFE092068
:10C25000FFF7D0FE002810DB0D4B81B21980ACB186
:10C260004FF47A7290FBF2F102FB1102642316483C
:10C2700092FBF3F200F02AFE00E03CB10A20FFF747
:10C28000B9FE011E02DB114800F020FE0AB010BD0D
:10C290000E000020307001004E7001006D70010032
:10C2A0008C700100AB700100CA700100EB700100DE
:10C2B000197101003B7101006A2600205D710100C7
:10C2C0007F710100AD710100D5710100F9710100AC
:10C2D000044B1A7822B1002018700120FFF732BFFA
:10C2E000704700BFC00A00207047000038B5074BF8
:10C2F00004461A781D46904206D0012803D818BF7C
:10C30000002002F023FC2C7038BD00BFC10A0020C1
:10C310000120FFF7EBBF000010B5084800F0D6FD84
:10C32000074B02200749C3F8800001240C7000F07D
:10C33000C3FA2046BDE81040FFF7D8BF1B720100CA
:10C34000006000402100002013B501211648FCF7D1
:10C350001DF90121032004220B46FCF753FE0320A4
:10C36000022101220023FCF74DFE104C0022032085
:10C37000022113460092FCF705FE2368013303D126
:10C380000B48FFF7D9FB206000200A49FFF79CFB10
:10C39000002001213722FFF79FFB002002B0BDE8FB
:10C3A0001040FFF7B9BB00BF00C20200240000200C
:10C3B00011C3000019C3000008B50C4B1A68013204
:10C3C00002D01868FFF7E8FB022000F06DFA084978
:10C3D0000220C867002002F0B9FB0020FFF786FFAB
:10C3E0000448BDE8084000F071BD00BF24000020F3
:10C3F000006000402A7201002DE9F04FA74B16465D
:10C400001A788FB00C46002A00F0D78018780128DF
:10C4100005D10220FFF76AFFA14BFF211970A14847
:10C420000268013203D000680521FFF7AFFB002C42
:10C4300000F0F280012002F089FB994991F9000097
:10C440003A2840F0C180984F05AC3D460FCD0FC44F
:10C450000FCD0FC42A68002305A822600D93934CCA
:10C4600003F0E4F8924A2578396A137800290CBF62
:10C47000A94685F0010953B1B9F1000F07D025781D
:10C480008C4940F64C64002D18BF0C4600E03C245B
:10C49000894A8A4D1368E418A04203D12B785C1CAA
:10C4A000E1B200E00121804C29701060834DE0680A
:10C4B000297823690090A268013301926068029094
:10C4C00022687F480392626900F000FD2978012903
:10C4D00077D92F78FA2F01D9FA242C70724F794C22
:10C4E0003D6ADFF8C88115F1000A3D460FCD0FC443
:10C4F0000FCD0FC42B6818BF4FF0010AA4F1200024
:10C500000121236098F800B088F800A0FFF788FCAC
:10C510000020FFF7AFFB6C4C98F800506B48B968EF
:10C52000002D18BF20467A683B680090684800F0EC
:10C53000CDFCD3452ED098F8002022B1654800F0FC
:10C54000C5FC002410E06448F9E71728C8BF0023A1
:10C550008DF8123020469DF912109DF913200134F8
:10C56000FFF7BAFA052C15D020460DF112010DF196
:10C570001302FFF7C1FA4D4B9DF8121018780028EE
:10C580000CBFFF2201225118CBB258B20028DCDACE
:10C590001723DDE75149464C0A68961B0E60B9F136
:10C5A000000F01D0002323700420FFF79FFE2078A6
:10C5B00018B13D494A68312A02DCFFF7FDFE19E156
:10C5C0000026374BFF2018703548027851B20131F0
:10C5D0001DD1434841F650030268A2F21F5199420F
:10C5E00017D83E480268B11A21F07F43A3F5664090
:10C5F000673843F2313290420BD828490B78042B2C
:10C6000002D00320FFF772FE0023254800E0531CF0
:10C61000037032480660EDE0304D204602F096FA95
:10C6200029681F4D761A28782D4B42B226F07F4696
:10C6300001321E6000F0DE80A6F21F5140F6833307
:10C6400099420AD9A6F58F560C3E9E4207D9022080
:10C65000FFF74CFEFF202870CCE0214600E00121CE
:10C6600043B21B2B13DC152B59DA102B44D004DCFE
:10C67000002B3ED080F2BE80B6E0122B41D03DDBD5
:10C68000132B00F0B780142B40F0AE8040E0232B3A
:10C6900068D029DC1C2B134A5CD149E0C10A002078
:10C6A00020000020240000206C2600203C260020D2
:10C6B000C80A00202CF2FFFFCC0A00202100002035
:10C6C0003A72010040260020C4720100F07201009D
:10C6D0006E7201009E720100C9720100C40A00203E
:10C6E000D00A0020C30A0020392B4DDD3A2B7BD124
:10C6F00059E0002978D17DE0404800E040480170D1
:10C7000078E03F4B187888426ED03E49086271E06D
:10C71000002969D03C4A002313603C4A18E03B4A98
:10C72000107848401070002964D0374A153B32E039
:10C7300013788B4258D134490A230868C0F3031494
:10C7400000F00F0003FB04032E48436000230B603E
:10C7500013704FE010784840107000294AD02A4AE0
:10C760001D3B18E0294B1A788A423DD126490A22FE
:10C770000868C0F3011400F00F0002FB0402214816
:10C78000826000220A6034E0204A1078484010702D
:10C7900081B31D4A243B012101FA03F3106843EAE7
:10C7A0000001116026E0194A107888421CD1164C0D
:10C7B0000A212368134A03F00F00C3F3011501FB9C
:10C7C0000505C3F34320D5600138C3F3403501FBB1
:10C7D00005001061980B2060C3F3834300F00F0045
:10C7E00001FB0301516105E00220FFF77FFD084BCB
:10C7F000FF221A700FB0BDE8F08F00BFC80A0020FA
:10C80000C20A00206C260020D40A0020C30A00209F
:10C8100020000020154B164A18604FF6FF710023C8
:10C82000C2F81031C2F80831C2F80C31C2F81C113C
:10C83000104A0830136008300E4B30F8102C19687D
:10C8400012B10A431A60F6E70948C0F808111A68DD
:10C85000094BC0F80C2102214FF40070C3F880117D
:10C860001960C3F880011860704700BFDC0A00201F
:10C8700000600040D80A002000E100E0024B0022E6
:10C88000C3F81021704700BF00600040044B4FF612
:10C89000FF720448C3F81C210168C3F810117047E7
:10C8A00000600040D80A0020024B0022C01881001E
:10C8B0000A60704780088310012202FA00F1044BDD
:10C8C000C3F81C110349401883001A60704700BF69
:10C8D0000060004080088310274A284B2DE9F0476C
:10C8E000D3F80490D2F81401D2F8101111EA00081C
:10C8F0003FD0234C236808EA0304002C36D0B4FA56
:10C9000084F5E8B2C0F11F06012707FA06F7072EE3
:10C9100024EA0704184905DCD1F80001B10020FA27
:10C9200001F306E0D1F80431C0F11702950023FAB3
:10C9300005F303F0070324225A43124D124B5019FA
:10C9400041681D680F420CBF4FF0000A4FF0010A0A
:10C95000083535F8082C002ACFD03A42F8D055F8DF
:10C96000043C304651464A469847F1E7024AC2F82D
:10C970001C81BDE8F08700BF006000400000084057
:10C98000D80A002018600040DC0A0020FFF7A4BF8E
:10C99000FFF7A2BF034B186818B10138186000B93F
:10C9A00062B67047200A002013B572B6224B1A688F
:10C9B000541C01D0501C1860204C217821B102B0C9
:10C9C000BDE81040FFF7E6BF01232370FFF7E2FF49
:10C9D0001B4A10881B4A81B21388C81A83B20BB94C
:10C9E000237026E0180405D51188C1F580639BB239
:10C9F0004FF4806112889818134A80B21080108812
:10CA000080B2B0F5806F04D31088A0F5806080B24A
:10CA100010800E4A0E4889180E4A01611BB201208F
:10CA20001060591E00220191009201461346FCF746
:10CA300073F802B010BD00BF200A0020E00A0020F9
:10CA4000E40E0020E60E0020E20E0020E00A0020A6
:10CA50000028002034000843054A002305481360DD
:10CA60000188054A88B2054910800B70FFF79CBF0A
:10CA700034000843E20E0020E60E0020E00A002009
:10CA800038B5012105461D48FBF780FD1C4C1D48AB
:10CA90000121FBF77BFD01211B48FBF777FD2046B9
:10CAA000FCF788FB194920468D60FCF762FB0225E4
:10CAB00004210A46656503200123FCF7A3FA144B01
:10CAC000144A0024DA601C611348FCF77DF9012048
:10CAD0001249FCF79DF801200146114AFCF7BEF807
:10CAE00010481149114B4861DD6011481149124B42
:10CAF000012202600C801C8038BD00BF00130400BE
:10CB00000040084000C20200400514003000002030
:10CB10000429002059CA00002800002040000020FD
:10CB20004C000020284008400028002000300C4025
:10CB300000E100E0E60E0020E40E002030B5002207
:10CB40000378002B2FD01A490C881A490988641AD7
:10CB5000A4B2A1B211F4004F1CBF04F5806189B2E8
:10CB600009B240F2FE34A1421DDC134D104C2D7869
:10CB7000124945B10A2B06D12AB923880D229BB24E
:10CB8000CA54012204E02288013092B28B54002260
:10CB9000074B1988013189B2B1F5806F1980CFD365
:10CBA00000211980CCE7BDE83040FFF7FDBE00BF93
:10CBB000E40E0020E60E002051000020E10A0020D3
:10CBC00007B500238DF8040001A88DF80530FFF7A4
:10CBD000B5FF0EBD08B5044B00221A7001F064F8D1
:10CBE000BDE8084000F05ABCEC0E002013B501214E
:10CBF00013480024FBF7CAFC04200D210222012364
:10CC0000FCF700FA04200D21224623460094FCF78D
:10CC1000B9F904200E2102220123FCF7F3F923467F
:10CC200000942246074C04200E21FCF7ABF9236840
:10CC3000013303D10448FEF77FFF20601CBD00BF15
:10CC400000C2020054000020D5CB000070B5204C7B
:10CC50000B4604F1887102464E0183F001002568FD
:10CC60000D2A14BF3221312146F82200194A1A4EEA
:10CC70001A48002B18BF324600F028F922687AB112
:10CC8000174C217801BB01F0F1F9E8B900F012FB73
:10CC9000D0B10123237000F0DFFF00F01BFC13E094
:10CCA00095B1104B104819680268002905DD013262
:10CCB0000AD00068FEF76AFF06E0013202D0006881
:10CCC000FEF76AFFFFF786FF084A0120107070BD6B
:10CCD00090260020DC740100F2740100F47201005F
:10CCE000EC0E0020E80E0020540000200029002057
:10CCF00072B6044B1A68511C01D0501C1860186899
:10CD0000704700BF200A0020034B186818B1013893
:10CD1000186000B962B67047200A0020054B1A78E7
:10CD20000AB1002001E0044B0120044A01211870DF
:10CD3000117070471C110020F40E00200029002003
:10CD4000094B1A683AB100211960084B1A78501E35
:10CD5000C1B2197001E001201860044B1A7812B1B9
:10CD60003220FEF727BF704794010C4228110020A3
:10CD70002DE9F0413E4B06461878AAB08846174682
:10CD800018B13C4C0122227006E03B490868441C63
:10CD900002D00521FEF7FAFE384D39492B680C68A0
:10CDA000C3F58052642AC8BF00229818051B48BFEB
:10CDB00005F58055C5F57F600F3063280CDC314DDB
:10CDC0003149286811AC421C11A82A6003F0B0F860
:10CDD00011A8FFF7B3FE08E0002A28492B4A02DD1C
:10CDE0000024D4540C600B68D41808A807A9FEF7D7
:10CDF000EDFF0D9A601C82B10B990A9B099D009171
:10CE000001930899079B02950C9D03910493204977
:10CE10006B1C03F08DF8451C03E01E4903F09EF9DE
:10CE200015254EB132783AB16019314603F096F9C2
:10CE3000304603F0F1F945193A466019414604F0CD
:10CE4000A7FF2D181449601903F088F9601CFFF73B
:10CE500075FE11A8EE1C844206D0084B0B491A68D7
:10CE6000013590198D5418602AB0BDE8F08100BFDB
:10CE70001C110020F40E0020580000202411002076
:10CE80002C11002020110020FC7201003011002024
:10CE900031730100537301006873010010B5074C32
:10CEA000074A084821680023136003604B1C03D124
:10CEB0000548FEF741FE206010BD00BF580000206D
:10CEC000241100202C1100201DCD00000FB437B517
:10CED00006AC54F8045BFFF70BFF002029462246FE
:10CEE0000194FFF745FFFFF70FFFBDE83E4004B098
:10CEF000704700000FB437B506AC54F8045BFFF779
:10CF0000F7FE2946224605480194FFF731FFFFF757
:10CF1000FBFEBDE83E4004B0704700BF6B730100EC
:10CF200038B50C46014628B1184801F059F90028D7
:10CF300018BF044616490B7823B116482246FFF75E
:10CF4000C5FF03E014482146FFF7C0FF134D2146FB
:10CF50000F4803F003F9214628461322FDF792FEFD
:10CF6000014628B9E9682846FEF757F9014628B175
:10CF70000B48FFF7BFFF0022084801E009480222E2
:10CF80000260BDE8384001F03FBA00BF7273010093
:10CF900094260020747301008B730100F80E0020AA
:10CFA0009D730100F00E002073B5064601F05EF897
:10CFB0000446002872D13A4801F0F8F800286DD0F4
:10CFC00001F0FCF92046FCF7ABFD58B13549086883
:10CFD000431E002B0B603CDB33482AE02A680234F6
:10CFE00010192860314D324A2B681068834223D0D3
:10CFF00001F03CF800BB2F4B29681A465C5C0CB969
:10D000002C601C78294D2868431CD11824482246DE
:10D010000DF10603FDF79DFF014688B9BDF8061026
:10D02000A142DBDA1F490B685A1E002A0A6010DB96
:10D030002148FFF75FFF0CE01948FEF75AF808E0B7
:10D04000184803685A1E002A026002DB1B48FFF7DB
:10D0500051FF8EB901F0D8F901F008F888B91849E4
:10D06000184B052201200A7018601748FEF79CFD36
:10D070003220FEF79FFD04E000F0F8FF0028E9D120
:10D080000CE0124A1068431C02D00F21FEF77EFD0F
:10D090000F48104B0121002201701A707CBD00BFA7
:10D0A000F80E0020F00E0020B87301002C110020B3
:10D0B0002411002030110020E6730100CE7301001E
:10D0C0002811002094010C4241CD0000580000209E
:10D0D0001C110020F40E00200B4B0C481A6801684C
:10D0E000531A48BF03F58053B3F5806F05DC084A37
:10D0F000107838B107490B7823B9054A0020107021
:10D10000FFF752BF704700BF241100202C110020F0
:10D11000F40E00201C110020024A03480123137062
:10D12000037070476400002000290020034B04496D
:10D13000002201201A700870704700BF64000020B0
:10D1400000290020074B1A784AB1074900220968D4
:10D150001A70914205DD054B1868FEF717BD0120D6
:10D1600018707047740000208000002084000020A8
:10D17000084B70B5084801241C7006784EB9074D5D
:10D1800004700748FFF7A2FE2E600220FEF736FD6E
:10D190002C6070BD7400002031210020A4130C42CB
:10D1A000FA73010038B5094B002409481C70027855
:10D1B00052B1084D04700848FFF788FE2C60022029
:10D1C000FEF71CFD0121296038BD00BF740000205E
:10D1D00031210020A8130C421174010010B5044C39
:10D1E000236823B10348FFF771FE0020206010BDC3
:10D1F0008C010C422874010010B5254800F0D2F9CA
:10D200000420092102460123FBF7FCFE04200A2129
:10D2100002460123FBF7F6FE002003210422034609
:10D22000FBF7F0FE1B4C0020042103460A46FBF7E7
:10D23000E9FE2368013303D11748FEF77DFC206027
:10D24000164C2068431C03D11548FEF775FC20607E
:10D2500003201449FEF738FC134A032092F900100A
:10D2600092F90120FEF738FC0320FEF755FC04205C
:10D270000E49FEF729FC0E4B042093F9001093F998
:10D280000120FEF729FC0420BDE81040FEF744BC55
:10D29000A47501008400002045D100006800002032
:10D2A000DDD1000019D100006E0000202DD100005A
:10D2B0006C000020014B1878704700BF302100201F
:10D2C000F0B59FB0054600F073F90446A0B93C489C
:10D2D00000F06EF9044660B93A4800F069F9044676
:10D2E00020B939482946FFF7F1FD67E0684637491C
:10D2F00004E06846364901E0364968462A4602F0AD
:10D3000017FE626800AB561C03EB000508BF324BEA
:10D31000A66808BF1A683148E4680260701C08BF3C
:10D320002F4E304908BF36682F4F0E60611C08BF72
:10D330002E4C2F4E08BF2468284634602D4C12F125
:10D34000020F14BF2146394602F0F2FD254A2D187E
:10D350001268284612F1020F14BF2146394602F026
:10D36000E7FD21462818326802F0E2FD6846FFF723
:10D37000ADFD1A48204C03680546002B01DC023342
:10D380000CD1FFF7F5FE21681B4B4A1C16D029680B
:10D390001868002910DCFEF7FFFB0FE021684B1C2A
:10D3A00002D02068FEF7F8FBFFF7FCFE0D4A11687B
:10D3B000002903DD10480068FEF7E8FB1FB0F0BD50
:10D3C000B57401008B74010044740100697401009C
:10D3D00093740100B9740100780000207C000020E3
:10D3E00070000020800000203C74010060000020DC
:10D3F0005C0000203F7401008400002008B5054B4C
:10D400001A68013202D01868FEF7C6FBBDE8084072
:10D41000FFF7E4BE6800002008B51A4B1A481A78D6
:10D42000017882B119BB1948FFF750FD184B1A68F3
:10D43000013202D01868FEF7AFFBFFF799FE1249E0
:10D440000120087013E091B1114B1A68013202D02B
:10D450001868FEF7A1FBFFF7A5FEFFF7CFFF00F06E
:10D46000BFFC0949002008700A48FFF72FFD0A4B4E
:10D470001A781AB1BDE80840FFF77ABEBDE8084047
:10D48000FFF790BE6400002030210020C974010025
:10D4900084000020DF74010074000020044B1A682F
:10D4A000013204D0034918680968FEF76FBB704762
:10D4B000680000205C00002010B5044C236823B9EC
:10D4C0000348FFF703FD0120206010BD8C010C42D2
:10D4D000F674010008B5054B1A68013202D01868CD
:10D4E000FEF75AFBBDE80840FFF7E6BF68000020E2
:10D4F000024B1868003018BF012070478C010C42A5
:10D5000010B5044C236823B90348FFF7DFFC012062
:10D51000206010BD90010C420975010010B5044C4B
:10D52000236823B10348FFF7D1FC0020206010BD21
:10D5300090010C421C75010008B50A4B1A680132B3
:10D5400002D01868FEF728FB074801684A1C02D081
:10D550000068FEF721FBFFF741FEBDE80840FFF73A
:10D56000DDBF00BF6800002084000020024B186867
:10D57000003018BF0120704790010C420268084932
:10D5800013780968C918497801F00801C9B211B1C6
:10D5900001320260F2E7D3F1010038BF002070478A
:10D5A000AC000020014B1860704700BF5C230020D6
:10D5B00038B5074B05461C683CB104F110002946FC
:10D5C00002F0DEFC08B12468F6E7204638BD00BF53
:10D5D00064230020F0B55C4BB3B0186810B15B4910
:10D5E0000A780AB95A484EE000250C266E43564F79
:10D5F0003C68A259A319002A41D0197902293CD0CC
:10D600006846544902F094FC3F6800AA1418B819FF
:10D610000379012B12D007D3022B24D04E48294680
:10D62000BA59FFF767FC1EE083684C4993F9002064
:10D63000204693F9013002F07BFC13E08668204617
:10D640003268571C04D1464902F088FD07340AE0CD
:10D65000961C04D1434902F081FD063403E042499F
:10D6600002F066FC24184149204602F077FD684626
:10D67000FFF764FAC820FEF7C1FA0135B5E73C4C64
:10D68000206818B93B48FFF759FA5AE03A48FFF7C3
:10D6900055FA2468002C54D004F11002374968462A
:10D6A00002F046FC00AD2D183549284602F056FD23
:10D6B00062682E1D511C304601D1324902E0931C94
:10D6C00004D1314902F04AFD0B3503E02F4902F045
:10D6D0002FFC35182E49284602F040FDA268EE1DA9
:10D6E000511C304601D1274902E0931C04D1264940
:10D6F00002F034FD0E3503E0244902F019FC351820
:10D700002449284602F02AFDE268AE1D511C30462D
:10D7100001D11C4902E0931C05D11B4902F01EFDFA
:10D7200005F10D0003E0194902F002FC30180F4921
:10D7300002F014FD6846FFF701FAC820FEF75EFA12
:10D74000A7E733B0F0BD00BF5C23002058230020C2
:10D750001C7601003A7601005576010043760100FF
:10D760004D7601001277010040740100887A0100B3
:10D770006423002085760100BE760100FE7601005C
:10D780000477010009770100117701001977010082
:10D790001E770100267701002DE9F0470646BAB052
:10D7A0000025A34CADF80A5000F008FEA148314610
:10D7B000FFF78CFB314620461322FDF763FA014642
:10D7C00030B19D48FFF796FB256000F01DFEFCE19F
:10D7D0009A4B186848B1046801F0ECFA2046002C16
:10D7E000F9D19749954A0C60146096480124047059
:10D7F000002608AB99198E4801220DF10A03FDF7A6
:10D80000EAFA014630B19048FFF774FB8D4A0020D8
:10D810001070A2E0BDF80A1061B13AAA901910F890
:10D82000C83C0D2B01D1013E01E00A2B02D001368C
:10D83000C72EDED93AAFB9193AA808AF002240F88E
:10D84000DC7D01F8C82CFFF799FE002878D1039DF4
:10D850002878232874D07D4B1A68111848788307DC
:10D8600006D17B1E7A482146EA1A67E00137039702
:10D87000039F97F800A002EB0A0393F8019019F0B8
:10D880000709F3D1BAF15F0FF0D0724A87F8009020
:10D89000D2F80080D8F800104746002965D0284605
:10D8A00002F06EFB08F10C08002867D009F10109AD
:10D8B000F0E7551C039553783039C5186D7805F09D
:10D8C0000405EDB22DB10A2505FB013102323039D4
:10D8D0000392039B1A783A2A40F08A805A78851876
:10D8E0006D7805F00405EDB2002D00F081809D7883
:10D8F0004019407800F00400C0B2002878D00A2017
:10D9000000FB025203330393A2F50470BB68C2B25A
:10D91000C9B219705A7009F1030049B252B2FEF748
:10D92000DBF803A8FFF72AFE50B9039B18782328D9
:10D9300006D00DF11F02484821469A1AFFF7DAFA7D
:10D94000BDF80A1049B1C72E05D944482146C8225E
:10D95000FFF7D0FA01E001344AE73548FDF71FFC34
:10D9600000F052FDFFF736FE2FE10DF11F033C489A
:10D97000EA1A21462B46FFF7BDFAE1E73AAD55F822
:10D98000DC1D81F800A02846FFF7F8FD039B1878FE
:10D990003D2801D033482CE05A1C28460392FFF75B
:10D9A000EDFD039A30B130480DF11F032146D21A24
:10D9B0003B68E0E73979012920D00CD3022940F0F7
:10D9C000FA80049021484FF0FF350595069507959C
:10D9D000904605684CE01D4B1178186843185B7839
:10D9E00003F00403DBB2002B7FF463AF1F48DBE7D7
:10D9F0001E4821460DF11F029A1AD9E71378412BD0
:10DA000010D0124D2D68039A1378E918497801F067
:10DA10000401C9B241B10A2101FB003001323038A2
:10DA20000392F0E76FF00100BB68186079E700BF70
:10DA3000342100202D7701004B7701006423002062
:10DA400060230020582300206E770100AC000020E6
:10DA5000917701005C230020D27801000979010050
:10DA60003B790100C7770100FC77010032780100A3
:10DA7000039B1A78A918497811F0070002D0591CA5
:10DA80000391F5E73A2A07D001F00803D8B240BB6A
:10DA9000002A7FF446AF24E01D4605F8010B0395EC
:10DAA0005A78412A04D1991C03916FF0010317E0C1
:10DAB000474B19688D186A7802F00403DDB285B10E
:10DAC0000346039802788D186D7805F00405EDB2D1
:10DAD00035B10A2505FB03230130303B0390F0E705
